:100000000C942A000C947A000C947A000C947A00D8
:100010000C947A000C947A000C947A000C947A0078
:100020000C947A000C947A000C947A000C947A0068
:100030000C947A000C947A000C947A000C947A0058
:100040000C947A000C947A000C947A000C947A0048
:100050000C947A0011241FBECFE5D4E0DEBFCDBFE3
:0C0060000E9466000C943400F894FFCF5E
:0D006C004920616D204D6963726F312300E2
:10007A00CF92DF92EF926B01E82EFB018491E7FCAD
:10008A008081882361F00E9472008FEFC81AD80A13
:10009A00E80AF6018491E7FC80818111F4CFEF90A0
:0600AA00DF90CF900895E5
:1000B00010BC8CE089B980B5806880BD80B5866051
:0C00C00080BD8AB188618AB9599A089500
:1000CC000E9458000E9476008031E1F76CE670E0E7
:0800DC0080E00E943D00FFCF0F
:0800E4005D9BFECF8CB908956D
:0800EC005F9BFECF8CB108956B
:0400F4000C94000068
:00000001FF
