:100000000C942A000C94D0000C94D0000C94D000D6
:100010000C94D0000C94D0000C94D0000C94D00020
:100020000C94D0000C94D0000C94D0000C94D00010
:100030000C94D0000C94D0000C94D0000C94D00000
:100040000C94D0000C94D0000C94D0000C94D000F0
:100050000C94D00011241FBECFE5D4E0DEBFCDBF8D
:0C0060000E9436000C943400F894FFCF8E
:10006C00CF93DF93CDB7DEB764970FB6F894DEBFAE
:10007C000FBECDBF0E94B7000E94C600CE010196F4
:10008C000E945A008981882371F010E090E00E9450
:10009C0099001F5FE1E0F0E0EC0FFD1FE10FF11D97
:0800AC0080818111F3CFFFCF29
:1000B400EF92FF920F931F93CF937C010E94CC0089
:1000C400F7018083833261F0C0E0CF5F87010C0FBA
:1000D400111D0E94CC00F80180838332B1F701C066
:1000E4008701F8011082CF911F910F91FF90EF903B
:0200F40008956D
:1000F60094989598E9EFF0E03197F1F700C0000089
:10010600969AE9EFF0E03197F1F700C0000085BB61
:1001160089EF90E00197F1F700C000009698E9EFAB
:0C012600F0E03197F1F700C000000895F0
:10013200949A9598E9EFF0E03197F1F700C000004A
:10014200969AE9EFF0E03197F1F700C0000085BB25
:1001520089EF90E00197F1F700C000009698E9EF6F
:0C016200F0E03197F1F700C000000895B4
:10016E0081B3806781BB8FEF84BB88E30E947B00E5
:0E017E008CE00E947B0081E00E947B000895CF
:0C018C00BE9A87B38F7487BB6E9A0895EB
:08019800779BFECF8FB10895A3
:0401A0000C940000BB
:00000001FF
