:100000000C942A000C9479000C9479000C947900DB
:100010000C9479000C9479000C9479000C9479007C
:100020000C9479000C9479000C9479000C9479006C
:100030000C9479000C9479000C9479000C9479005C
:100040000C9479000C9479000C9479000C9479004C
:100050000C94790011241FBECFE5D4E0DEBFCDBFE4
:0C0060000E945D000C943400F894FFCF67
:0E006C004920616D204D6963726F20312300C1
:10007A00CF92DF92EF92CF936B01E82EFB0184912E
:10008A00E7FC8081882379F0C0E00E947500CF5F89
:10009A00AE2DC6018C0F911DA11DFC018491A7FDF7
:1000AA0080818111F2CFCF91EF90DF90CF900895A8
:1000BA000E946B0083ED90E30197F1F700C0000006
:0C00CA006CE670E080E00E943D00FFCF7B
:1000D60087B3806B87BBBE986C9A8DB18C7F8DB9C8
:0400E6006E9A089571
:0800EA008FB9779BFECF08954A
:0400F2000C9400006A
:00000001FF
