:100000000C942A000C947B000C947B000C947B00D5
:100010000C947B000C947B000C947B000C947B0074
:100020000C947B000C947B000C947B000C947B0064
:100030000C947B000C947B000C947B000C947B0054
:100040000C947B000C947B000C947B000C947B0044
:100050000C947B0011241FBECFE5D4E0DEBFCDBFE2
:0C0060000E9474000C943400F894FFCF50
:10006C00E0E1F0E060E070E0862F9F01062E02C018
:10007C00220F331F0A94E2F72ABB20952BBBC89B97
:10008C000EC041E050E0942F29B330E0042E02C0A2
:10009C00359527950A94E2F720FD14C001C090E035
:1000AC008F5F292F220F920F890F8B3029F08C3004
:1000BC0029F08A3091F404C080E3089583E2089516
:1000CC008AE208954F5F5F4F44305105E1F66F5F50
:0C00DC007F4F6330710541F6C5CF0895D9
:0E00E8008FEF87BB18BA0E94360088BBFCCF92
:0400F6000C94000066
:00000001FF
