:100000000C942A000C94E9000C94E9000C94E9008B
:100010000C94E9000C94E9000C94E9000C94E900BC
:100020000C94E9000C94E9000C94E9000C94E900AC
:100030000C94E9000C94E9000C94E9000C94E9009C
:100040000C94E9000C94E9000C94E9000C94E9008C
:100050000C94E90011241FBECFE5D4E0DEBFCDBF74
:0C0060000E94E1000C943400F894FFCFE3
:0D006C004920616D206D61686D6F75640045
:10007A00C098C198E9EFF0E03197F1F700C00000AD
:10008A00C29AE9EFF0E03197F1F700C00000982F2B
:10009A00907F9BBBE9EFF0E03197F1F700C00000D9
:1000AA00C298E9EFF0E03197F1F700C00000C29A78
:1000BA00E9EFF0E03197F1F700C00000F0E18F9F1F
:1000CA00C00111248BBB89EF90E00197F1F700C0C2
:1000DA000000C298E9EFF0E03197F1F700C00000A4
:0200EA00089577
:1000EC00C09AC198E9EFF0E03197F1F700C0000039
:1000FC00C29AE9EFF0E03197F1F700C00000982FB9
:10010C00907F9BBBE9EFF0E03197F1F700C0000066
:10011C00C298E9EFF0E03197F1F700C00000C29A05
:10012C00E9EFF0E03197F1F700C00000F0E18F9FAC
:10013C00C00111248BBB89EF90E00197F1F700C04F
:10014C000000C298E9EFF0E03197F1F700C0000031
:02015C00089504
:10015E00CF92DF92EF926B01E82EFB018491E7FCC8
:10016E008081882361F00E9476008FEFC81AD80A2A
:10017E00E80AF6018491E7FC80818111F4CFEF90BB
:06018E00DF90CF90089500
:1001940087B3876087BB8AB3806F8ABB82E090E0B5
:1001A4000E943D0088E290E00E943D008CE090E0D7
:0E01B4000E943D0081E090E00E943D00089511
:1001C2000E94CA006CE670E080E00E94AF00FFCFA0
:0401D2000C94000089
:00000001FF
