:100000000C942A000C9451000C9451000C94510053
:100010000C9451000C9451000C9451000C9451001C
:100020000C9451000C9451000C9451000C9451000C
:100030000C9451000C9451000C9451000C945100FC
:100040000C9451000C9451000C9451000C945100EC
:100050000C94510011241FBECFE5D4E0DEBFCDBF0C
:0C0060000E9444000C943400F894FFCF80
:10006C0010BC8CE089B980B5806880BD80B5866095
:0C007C0080BD8AB188618AB9599A089544
:1000880084B38F6084BB0E9436000E944D0085BBFC
:02009800FCCF9B
:08009A005F9BFECF8CB10895BD
:0400A2000C940000BA
:00000001FF
