:100000000C942A000C94E5000C94E5000C94E50097
:100010000C94E5000C94E5000C94E5000C94E500CC
:100020000C94E5000C94E5000C94E5000C94E500BC
:100030000C94E5000C94E5000C94E5000C94E500AC
:100040000C94E5000C94E5000C94E5000C94E5009C
:100050000C94E50011241FBECFE5D4E0DEBFCDBF78
:0C0060000E94BC000C943400F894FFCF08
:10006C00CF93DF93CDB7DEB760970FB6F894DEBFB2
:10007C000FBECDBF8823A1F04DEC849F912D112490
:10008C00969596959695392F330F232F220F220F85
:10009C00230F821B20E3280F892F9111EECF298388
:1000AC00BE016F5F7F4F80E80E94A10060960FB683
:0E00BC00F894DEBF0FBECDBFDF91CF91089547
:1000CA0094989598E9EFF0E03197F1F700C00000B5
:1000DA00969AE9EFF0E03197F1F700C0000085BB8E
:1000EA0089EF90E00197F1F700C000009698E9EFD8
:0C00FA00F0E03197F1F700C0000008951D
:10010600949A9598E9EFF0E03197F1F700C0000076
:10011600969AE9EFF0E03197F1F700C0000085BB51
:1001260089EF90E00197F1F700C000009698E9EF9B
:0C013600F0E03197F1F700C000000895E0
:10014200CF92DF92EF926B01E82EFB018491E7FCE4
:100152008081882361F00E9483008FEFC81AD80A39
:10016200E80AF6018491E7FC80818111F4CFEF90D7
:06017200DF90CF9008951C
:100178000E94DB000E94CC000E94E1008A3020F43B
:1001880090E00E943600F8CF90E00E948300F4CF00
:1001980081B3806781BB8FEF84BB88E30E946500D1
:0E01A8008CE00E94650081E00E9465000895D1
:0C01B600BE9A87B38F7487BB6E9A0895C1
:0801C200779BFECF8FB1089579
:0401CA000C94000091
:00000001FF
