:100000000C942A000C944A000C944A000C944A0068
:100010000C944A000C944A000C944A000C944A0038
:100020000C944A000C944A000C944A000C944A0028
:100030000C944A000C944A000C944A000C944A0018
:100040000C944A000C944A000C944A000C944A0008
:100050000C944A0011241FBECFE5D4E0DEBFCDBF13
:0C0060000E943E000C943400F894FFCF86
:10006C0010BC86E089B988E18AB986E880BD08951C
:10007C0085E090E00E9436008EE60E944600FFCF9D
:08008C005D9BFECF8CB90895C5
:040094000C940000C8
:00000001FF
