:100000000C942A000C94A4000C94A4000C94A4005A
:100010000C94A4000C94A4000C94A4000C94A400D0
:100020000C94A4000C94A4000C94A4000C94A400C0
:100030000C94A4000C94A4000C94A4000C94A400B0
:100040000C94A4000C94A4000C94A4000C94A400A0
:100050000C94A40011241FBECFE5D4E0DEBFCDBFB9
:0C0060000E9457000C943400F894FFCF6D
:10006C00EF92FF920F931F93CF937C010E94A000FD
:10007C00F7018083833261F0C0E0CF5F87010C0F02
:10008C00111D0E94A000F80180838332B1F701C0DA
:10009C008701F8011082CF911F910F91FF90EF9083
:0200AC000895B5
:1000AE00CF93DF93CDB7DEB764970FB6F894DEBF6C
:1000BE000FBECDBFD09AD89A0E948E008E010F5FD0
:1000CE001F4F680180E8E82EC8010E9436008E2D71
:0800DE00B6010E947300F8CF87
:1000E600CF92DF92EF926B01E82EFB018491E7FC41
:1000F6008081882361F00E949C008FEFC81AD80A7D
:10010600E80AF6018491E7FC80818111F4CFEF9033
:06011600DF90CF90089578
:10011C0010BC8CE089B980B5806880BD80B58660E4
:0C012C0080BD8AB188618AB9599A089593
:080138005D9BFECF8CB9089518
:080140005F9BFECF8CB1089516
:040148000C94000013
:00000001FF
