:100000000C942A000C9490000C9490000C94900096
:100010000C9490000C9490000C9490000C94900020
:100020000C9490000C9490000C9490000C94900010
:100030000C9490000C9490000C9490000C94900000
:100040000C9490000C9490000C9490000C949000F0
:100050000C94900011241FBECFE5D4E0DEBFCDBFCD
:0C0060000E9480000C943400F894FFCF44
:10006C0012BE93B7986493BF93B7906293BF93B744
:10007C009F7E93BF8CBFBB9A68307105F9F038F442
:10008C006115710581F06130710589F00895611574
:10009C0081E0780709F1611584E0780721F160347B
:1000AC00710539F512C083B7887F83BF089583B774
:1000BC00897F83BF83B7816083BF089583B78A7FAD
:1000CC0083BF83B7826083BF089583B78B7F83BF61
:1000DC0083B7836083BF089583B78C7F83BF83B757
:1000EC00846083BF089583B78D7F83BF83B785609A
:0400FC0083BF089521
:10010000789468E070E08EE70E9436002FEF84E379
:100110009CE0215080409040E1F700C00000F1CF0A
:040120000C9400003B
:00000001FF
