:100000000C942A000C9496000C9496000C94960084
:100010000C9496000C9496000C9496000C94960008
:100020000C9496000C9496000C9496000C949600F8
:100030000C9496000C9496000C9496000C949600E8
:100040000C9496000C9496000C9496000C949600D8
:100050000C94960011241FBECFE5D4E0DEBFCDBFC7
:0C0060000E9474000C943400F894FFCF50
:10006C00E0E1F0E060E070E0862F9F01062E02C018
:10007C00220F331F0A94E2F72ABB20952BBBC89B97
:10008C000EC041E050E0942F29B330E0042E02C0A2
:10009C00359527950A94E2F720FD14C001C090E035
:1000AC008F5F292F220F920F890F8B3029F08C3004
:1000BC0029F08A3091F404C080E3089583E2089516
:1000CC008AE208954F5F5F4F44305105E1F66F5F50
:0C00DC007F4F6330710541F6C5CF0895D9
:1000E8000E9484000E9436000E9492002FE986E850
:1000F80091E0215080409040E1F700C00000F2CF2D
:1001080010BC8CE089B980B5806880BD80B58660F8
:0C01180080BD8AB188618AB9599A0895A7
:080124005D9BFECF8CB908952C
:04012C000C9400002F
:00000001FF
