:100000000C942A000C947C000C947C000C947C00D2
:100010000C947C000C947C000C9466000C94710091
:100020000C947C000C947C000C947C000C947C0060
:100030000C947C000C947C000C947C000C947C0050
:100040000C947C000C947C000C947C000C947C0040
:100050000C947C0011241FBECFE5D4E0DEBFCDBFE1
:0C0060000E9457000C943400F894FFCF6D
:10006C001DBC1CBC99B7986199BF9FB59C609FBD86
:10007C009FB598609FBD9EB591609EBD853608F07A
:10008C0084E694E6899F900111243BBD2ABD282F5C
:10009C003CE93203C0011124805F984D99BD88BDA5
:0200AC000895B5
:1000AE007894B89A82E30E9436002FE382E49FE0B0
:0E00BE00215080409040E1F700C00000FFCFCD
:1000CC001F920F920FB60F921124C09A0F900FBE71
:0600DC000F901F90189523
:1000E2001F920F920FB60F921124C0980F900FBE5D
:0600F2000F901F9018950D
:0400F8000C94000064
:00000001FF
