:100000000C942A000C948D000C948D000C948D009F
:100010000C948D000C948D000C948D000C948D002C
:100020000C948D000C948D000C948D000C948D001C
:100030000C948D000C948D000C948D000C948D000C
:100040000C948D000C948D000C948D000C948D00FC
:100050000C948D0011241FBECFE5D4E0DEBFCDBFD0
:0C0060000E9482000C943400F894FFCF42
:10006C00E0E1F0E060E070E0862F9F01062E02C018
:10007C00220F331F0A94E2F72ABB20952BBBC89B97
:10008C000EC041E050E0942F29B330E0042E02C0A2
:10009C00359527950A94E2F720FD14C001C090E035
:1000AC008F5F292F220F920F890F8B3029F08C3004
:1000BC0029F08A3091F404C080E3089583E2089516
:1000CC008AE208954F5F5F4F44305105E1F66F5F50
:0C00DC007F4F6330710541F6C5CF0895D9
:1000E80010BC8CE089B980B5806880BD80B5866019
:0C00F80080BD8AB188618AB9599A0895C8
:0E0104000E9474000E9436000E948900FBCF0A
:080112005D9BFECF8CB908953E
:04011A000C94000041
:00000001FF
