:100000000C942A000C947B000C947B000C947B00D5
:100010000C947B000C947B000C947B000C947B0074
:100020000C947B000C947B000C947B000C947B0064
:100030000C947B000C947B000C947B000C947B0054
:100040000C947B000C947B000C947B000C947B0044
:100050000C947B0011241FBECFE5D4E0DEBFCDBFE2
:0C0060000E9436000C943400F894FFCF8E
:10006C008D9A81E490E00E945F002FEF8EE994E27C
:10007C00215080409040E1F700C000008BEB90E0F5
:10008C000E945F002FEF8EE994E221508040904057
:10009C00E1F700C000008CE291E00E945F002FEFBE
:1000AC008EE994E2215080409040E1F700C00000BE
:0200BC00D8CF9B
:1000BE009C011DBC1CBC83EC99E097BD86BD9FB511
:1000CE0092609FBD9EB598619EBD3BBD2ABD8FB50A
:1000DE0080688FBD8FB58F7B8FBD8FB5877F8FBDAE
:0800EE008EB583608EBD0895FC
:0400F6000C94000066
:00000001FF
