:100000000C942A000C944B000C944B000C944B0065
:100010000C944B000C944B000C944B000C944B0034
:100020000C944B000C944B000C944B000C944B0024
:100030000C944B000C944B000C944B000C944B0014
:100040000C944B000C944B000C944B000C944B0004
:100050000C944B0011241FBECFE5D4E0DEBFCDBF12
:0C0060000E9436000C943400F894FFCF8E
:10006C000E944100D19A0E944700882311F0D99A2E
:06007C00FACFD998F8CF7D
:0C008200BE9A87B38F7487BB6E9A0895F6
:08008E00779BFECF8FB10895AE
:040096000C940000C6
:00000001FF
