:100000000C942A000C94DF000C94DF000C94DF00A9
:100010000C94DF000C94DF000C94DF000C94DF00E4
:100020000C94DF000C94DF000C94DF000C94DF00D4
:100030000C94DF000C94DF000C94DF000C94DF00C4
:100040000C94DF000C94DF000C94DF000C94DF00B4
:100050000C94DF0011241FBECFE5D4E0DEBFCDBF7E
:0C0060000E9436000C943400F894FFCF8E
:10006C00CF93DF93CDB7DEB7E2970FB6F894DEBF30
:10007C000FBECDBF0E94C9000E94BA0080E10E9451
:10008C00D700CE0101960E945D008981882371F012
:10009C0010E090E00E949C001F5FE1E0F0E0EC0FAC
:0E00AC00FD1FE10FF11D80818111F3CFFFCF09
:1000BA00EF92FF920F931F93CF937C010E94DB0074
:1000CA00F7018083833261F0C0E0CF5F87010C0FB4
:1000DA00111D0E94DB00F80180838332B1F701C051
:1000EA008701F8011082CF911F910F91FF90EF9035
:0200FA00089567
:1000FC0094989598E9EFF0E03197F1F700C0000083
:10010C00969AE9EFF0E03197F1F700C0000085BB5B
:10011C0089EF90E00197F1F700C000009698E9EFA5
:0C012C00F0E03197F1F700C000000895EA
:10013800949A9598E9EFF0E03197F1F700C0000044
:10014800969AE9EFF0E03197F1F700C0000085BB1F
:1001580089EF90E00197F1F700C000009698E9EF69
:0C016800F0E03197F1F700C000000895AE
:1001740081B3806781BB8FEF84BB88E30E947E00DC
:0E0184008CE00E947E0081E00E947E000895C3
:1001920010BC8CE089B980B5806880BD80B586606E
:0C01A20080BD8AB188618AB9599A08951D
:0801AE005D9BFECF8CB90895A2
:0801B6005F9BFECF8CB10895A0
:0401BE000C9400009D
:00000001FF
