:100000000C942A000C94EB000C94EB000C94EB0085
:100010000C94EB000C94EB000C94EB000C94EB00B4
:100020000C94EB000C94EB000C94EB000C94EB00A4
:100030000C94EB000C94EB000C94EB000C94EB0094
:100040000C94EB000C94EB000C94EB000C94EB0084
:100050000C94EB0011241FBECFE5D4E0DEBFCDBF72
:0C0060000E94D9000C943400F894FFCFEB
:10006C00CF93DF93CDB7DEB728970FB6F894DEBFEA
:10007C000FBECDBF8823A1F04DEC849F912D112490
:10008C00969596959695392F330F232F220F220F85
:10009C00230F821B20E3280F892F9111EECF298388
:1000AC00BE016F5F7F4F80E80E94A10028960FB6BB
:0E00BC00F894DEBF0FBECDBFDF91CF91089547
:1000CA0094989598E9EFF0E03197F1F700C00000B5
:1000DA00969AE9EFF0E03197F1F700C0000085BB8E
:1000EA0089EF90E00197F1F700C000009698E9EFD8
:0C00FA00F0E03197F1F700C0000008951D
:10010600949A9598E9EFF0E03197F1F700C0000076
:10011600969AE9EFF0E03197F1F700C0000085BB51
:1001260089EF90E00197F1F700C000009698E9EF9B
:0C013600F0E03197F1F700C000000895E0
:10014200CF92DF92EF926B01E82EFB018491E7FCE4
:100152008081882361F00E9483008FEFC81AD80A39
:10016200E80AF6018491E7FC80818111F4CFEF90D7
:06017200DF90CF9008951C
:1001780081B3806781BB8FEF84BB88E30E946500F1
:0E0188008CE00E94650081E00E9465000895F1
:1001960010BC8CE089B980B5806880BD80B586606A
:0C01A60080BD8AB188618AB9599A089519
:1001B2000E94CB000E94BC000E94E7008A3018F423
:0C01C2000E943600F9CF0E948300F6CFA7
:0801CE005F9BFECF8CB1089588
:0401D6000C94000085
:00000001FF
