:100000000C942A000C9451000C9451000C94510053
:100010000C9451000C9451000C9451000C9451001C
:100020000C9451000C9451000C9451000C9451000C
:100030000C9451000C9451000C9451000C945100FC
:100040000C9451000C9451000C9451000C945100EC
:100050000C94510011241FBECFE5D4E0DEBFCDBF0C
:0C0060000E9436000C943400F894FFCF8E
:10006C000E944300D098C89B04C081E00E944D00C0
:0A007C00FACF80E00E944D00F6CF9D
:1000860087B3806B87BBBE986C9A8DB18C7F8DB918
:040096006E9A0895C1
:08009A008FB9779BFECF08959A
:0400A2000C940000BA
:00000001FF
