:100000000C942A000C9403010C9403010C9403013A
:100010000C9403010C9403010C9403010C94030150
:100020000C9403010C9403010C9403010C94030140
:100030000C9403010C9403010C9403010C94030130
:100040000C9403010C9403010C9403010C94030120
:100050000C94030111241FBECFE5D4E0DEBFCDBF59
:0C0060000E94BF000C943400F894FFCF05
:10006C00EF92FF920F931F93CF93DF93EC018B01D1
:10007C000E94F4000E940001883091F57E01EE246C
:10008C0087E0F822EE0CEF2CEE1CFF08F1948E2D7D
:10009C00806A0E94E6000E940001883119F58C2FBD
:1000AC000E94E6000E9400018832F1F40E94F400E4
:1000BC000E9400018031D1F48E2D816A0E94E600ED
:1000CC000E9400018034A1F40E94ED00F8018083AD
:1000DC000E940001883571F40E94FD0081E00BC084
:1000EC0080E009C080E007C080E005C080E003C06C
:1000FC0080E001C080E0DF91CF911F910F91FF90C4
:04010C00EF900895D3
:100110001F93CF93DF93EC01162F0E94F4000E94EF
:100120000001883009F5CE0188279770880F892F44
:10013000881F990B9195806A0E94E6000E94000139
:100140008831A1F48C2F0E94E6000E9400018832C1
:1001500079F4812F0E94E6000E940001883251F458
:100160000E94FD0081E007C080E005C080E003C080
:0E01700080E001C080E0DF91CF911F910895E3
:10017E00CF93DF931F92CDB7DEB719828FEF81BB7E
:10018E0012BA0E94FA006FE081E193E00E948800AB
:10019E008FE19EE40197F1F700C00000BE016F5F92
:1001AE007F4F81E193E00E943600898182BBFDCFB3
:0E01BE0082E080B911B882B984E086BF08954E
:0E01CC0083B984E886BF06B607FEFDCF08950E
:0E01DA0084E886BF06B607FEFDCF83B1089508
:0C01E80084EA86BF06B607FEFDCF08952E
:0601F4000E94DF000895E7
:0601FA0084E986BF0895B0
:0602000081B1887F089522
:040206000C94000054
:00000001FF
